:020000040000FA
:10000000D0020020D9000000270300001D030000DB
:1000100000000000000000000000000000000000E0
:10002000000000000000000000000000C10500000A
:10003000000000000000000029030000C5050000CA
:1000400033060000250300005D050000D10100001B
:10005000810300000D0200000F02000011020000E9
:100060001302000075010000770100007901000013
:10007000690100006B0100002F060000310600003E
:100080001503000017030000190300001B03000004
:100090006F010000710100007301000021030000E6
:1000A000230300005F050000610500002906000031
:1000B0002B0600002D0600006D010000CF0100009E
:1000C0000448854600F03EF80048004771060000ED
:1000D000C046C046D002002004488047044800477C
:1000E000FEE7FEE7FEE7FEE7FEE7FEE7ED050000C0
:1000F000C100000030B50B4601460020202201243B
:1001000009E00D46D5409D4205D31D469540491B4B
:100110002546954040191546521E002DF1DC30BD94
:1001200003460B439B0703D009E008C9121F08C010
:10013000042AFAD203E00B780370401C491C521EBB
:10014000F9D27047064C0125064E05E0E36807CC5E
:100150002B430C3C98471034B442F7D3FFF7B4FF5D
:100160002809000048090000704770477047704731
:1001700070477047704770477047002904D0026885
:1001800001231A43026003E0026852085200026031
:1001900070470268F8239A430B681A434B681A4366
:1001A0008B681A43CB681A4302600269120A120272
:1001B0000B691A434B691A43026101231B048A69C4
:1001C0001A434260CA6982600A6AC2607047704717
:1001D000704700000A4A126B02239A43921C084B94
:1001E0001A63002804D00822024310231A4300E0B7
:1001F00000221146034A0A43034B5A60704700002D
:100200000000014000005A5A002002407047704729
:10021000704770474A68002A04D1C2690B681A43C4
:10022000C26174E0C2690B689A43C26110234A68D4
:100230001A40102A4ED102680B681A4302604A68BD
:10024000112A07D102690B681A430261C2680B6860
:100250009A43C2604A68122A07D1C2680B681A43DF
:10026000C26002690B689A430261426A0B689A4352
:100270004262826A0B689A438262C26A0B689A433E
:10028000C262026B0B689A43026381238A681A4038
:10029000812A03D1426A0B681A43426282238A6828
:1002A0001A40822A03D1826A0B681A43826284232D
:1002B0008A681A40842A03D1C26A0B681A43C26250
:1002C00088238A681A40882A21D1026B0B681A4356
:1002D00002631CE002680B689A4302604A68202AA5
:1002E00004D142680B689A43426003E042680B689D
:1002F0001A434260064BCA689A4204D182680B686E
:100300001A43826003E082680B689A4382607047F8
:10031000FFFF0000704770477047704700BFFEE75F
:10032000704770477047704770470000002905D03C
:10033000054A126B0243044B1A6304E0024A126B33
:100340008243014B1A63704700000140C1029322AF
:10035000520212881143084A916111464968074ABE
:100360001143054A516000BF034989690122D20344
:1003700011409142F8D170470000014001005A5AE3
:1003800070470000F0B58BB007460D4616460024B6
:1003900000200A900990254801460EC9C0680793BD
:1003A0000692059108901422204910316846FFF703
:1003B000B7FE00BF08E0A00005A90858A84201D96F
:1003C0000A9403E0601CC4B2042CF4D300BF284696
:1003D00070430990002409E0A00069460958099873
:1003E000814201D9099403E0601CC4B2052CF3D307
:1003F00000BF09984002072109030843310108435F
:100400000A998900084338430949886208464068C8
:10041000084908430649486000BF0548806A012131
:10042000C90308408842F8D10BB0F0BD04090000B0
:100430000000014004005A5A70B504460C48006898
:1004400080B20C494018C008C00020430849086029
:1004500000F012F8054600F07BF8054800684007F8
:10046000400FA04201D0012070BD0020FCE7000039
:100470000000014000005A5AF8B50025002700246A
:100480000026002000902D48006847077F0F2B486A
:1004900080694004040F2948806A8007800F00901B
:1004A0002648806AC005C60E3B0000F0C3F805046C
:1004B0000C130E103400A000214A11582148FFF7F8
:1004C00019FE05462FE0204D2DE0204D2BE00125A3
:1004D000ED0328E00098002804D0012803D0032869
:1004E0000ED104E000BF18483546454311E0A00096
:1004F000134A11581348FFF7FDFD7043054608E005
:10050000A0000F4A11580F48FFF7F4FD704305464D
:1005100000BF00BF07E0A000094A11580948FFF7D3
:10052000E9FD054600BF00BF044800680006410F12
:100530002846C84005462846F8BD00000000014096
:10054000C4080000006CDC020024F40020800000DD
:1005500001490860704700000000002070477047A4
:10056000704710B5026840239A438B014024234012
:100570001A43026010BD024610690840002801D0ED
:10058000012070470020FCE710B50A888B881A43C9
:100590004B891A430B8A1A43CB891A438B891A4316
:1005A0004B881A43CB881A430B891A430368024CC1
:1005B00023401A43026010BD4000FFFF8161704775
:1005C0007047000003480068034909784018014952
:1005D00008607047040000200C0000200148024918
:1005E0000860704700127A000000002000B5FFF795
:1005F000F5FF9321490209884805400D0949896999
:10060000C90AC9020143074A9161932149024988F5
:100610008805800D1146096A890A89020143116221
:1006200000BD0000000001407047704770477047F0
:100630007047704730B47446641E2578641CAB4222
:1006400004D3635D5B00E31830BC18471D46F8E730
:1006500002E008C8121F08C1002AFAD1704770478B
:10066000002001E001C1121F002AFBD170470000E9
:1006700010B501210220FFF759FE0220FFF7AAFD65
:100680000720FFF763FE042208490320FFF77AFEE4
:100690000220FFF7D1FE00F02BF800F0C7F800F0C1
:1006A0000EF800F0CBF8002010BD00000024F4008C
:1006B00000B500221146104600F008F800BD00B554
:1006C000FF220021084600F001F800BDF0B5054604
:1006D0000E461746002407E03B4632462946204690
:1006E00000F0C6F8601C84B2082CF5DBF0BD0000F9
:1006F00000B593B04748006B202108434549086383
:100700000846006B01210843424908630846406BD4
:10071000891508433F4948633F4840690F21090450
:1007200088430521090440183B494861084640694F
:100730000F210905884305210905401836494861FC
:10074000084640690F21090688430521090640181B
:10075000314948610846406900010009052109073F
:1007600040182D494861012040030F90202010902F
:100770002A4812900FA92848FFF74CFD0120C0031A
:100780000F900FA92448FFF745FD012080030F902B
:10079000102010900FA92048FFF73CFD082006907C
:1007A00000200790102008900020099001200A9056
:1007B0001C200B90012080020C9019480D901948C4
:1007C0000E9006A91848FFF7E4FC01211648FFF730
:1007D000D4FC0021684681800421C1800721890260
:1007E000018100214181818101214902C1811021C2
:1007F000018200214182818201A90A481838FFF74D
:10080000C3FE012107481838FFF7ABFEFFF750FF82
:1008100013B000BD0000014000040048FFFF0000CD
:1008200010000020183001402000024000B50022D6
:100830001146FF20FFF74AFF00BD000010B500245D
:100840000EE000BF01210848FFF795FE0028F9D00F
:100850002046621C94B2054A115C0348FFF7AEFEC5
:10086000C02CEED310BD000000300140100000206D
:1008700070B5044618256543114EA81980251CE063
:1008800016462E40002E02DDFC26067001E0C02632
:1008900006700E462E40002E02DDFC26067201E098
:1008A000C02606721E462E40002E02DDFC2606746F
:1008B00001E0C0260674401C6D10002DE0DC70BD08
:1008C00010000020060000000600000006000000E6
:1008D0000600000006000000060000000100000005
:1008E00003000000020000000400000006000000F9
:1008F000080000000A0000000C0000000E000000CC
:1009000010000000808D5B00001BB700002D31013E
:1009100001366E0180A8120100366E0100512502D9
:10092000006CDC0201A24A0448090000000000201B
:1009300010000000500600005809000010000020C0
:10094000C00200006006000000127A0000000000F3
:0809500004000000010000009A
:04000005000000C136
:00000001FF
