:020000040000FA
:1000000010060020D90000007B03000071030000EF
:1000100000000000000000000000000000000000E0
:1000200000000000000000000000000015060000B5
:1000300000000000000000007D0300001906000021
:100040008706000079030000B105000027020000C8
:10005000D503000061020000630200006502000099
:1000600067020000CB010000CD010000CF010000BD
:10007000BF010000C10100008306000085060000EA
:10008000690300006B0300006D0300006F030000B4
:10009000C5010000C7010000C90100007503000090
:1000A00077030000B3050000B50500007D060000E1
:1000B0007F06000081060000C30100002502000049
:1000C0000448854600F03EF800480047C506000099
:1000D000C046C04610060020044880470448004738
:1000E000FEE7FEE7FEE7FEE7FEE7FEE7410600006B
:1000F000C100000030B50B4601460020202201243B
:1001000009E00D46D5409D4205D31D469540491B4B
:100110002546954040191546521E002DF1DC30BD94
:1001200003460B439B0703D009E008C9121F08C010
:10013000042AFAD203E00B780370401C491C521EBB
:10014000F9D27047064C0125064E05E0E36807CC5E
:100150002B430C3C98471034B442F7D3FFF7B4FF5D
:10016000C0080000E008000070B58C180578401C3D
:100170006B075B0F01D10378401C2A1106D102786E
:10018000401C03E006780E70401C491C5B1EF9D130
:100190002B0705D40023521E0DD40B70491CFAE71F
:1001A0000378401CCB1A921C03E01D780D70491C8B
:1001B0005B1C521EF9D5A142D8D3002070BD7047F8
:1001C0007047704770477047704770477047704777
:1001D000002904D0026801231A43026003E0026888
:1001E00052085200026070470268F8239A430B6875
:1001F0001A434B681A438B681A43CB681A43026050
:100200000269120A12020B691A434B691A4302610E
:1002100001231B048A691A434260CA6982600A6A20
:10022000C2607047704770470A4A126B02239A43B4
:10023000921C084B1A63002804D0082202431023A2
:100240001A4300E000221146034A0A43034B5A6056
:10025000704700000000014000005A5A0020024090
:1002600070477047704770474A68002A04D1C269D6
:100270000B681A43C26174E0C2690B689A43C26199
:1002800010234A681A40102A4ED102680B681A439C
:1002900002604A68112A07D102690B681A43026199
:1002A000C2680B689A43C2604A68122A07D1C268C2
:1002B0000B681A43C26002690B689A430261426A82
:1002C0000B689A434262826A0B689A438262C26AEE
:1002D0000B689A43C262026B0B689A4302638123E4
:1002E0008A681A40812A03D1426A0B681A43426223
:1002F00082238A681A40822A03D1826A0B681A43D1
:10030000826284238A681A40842A03D1C26A0B68F5
:100310001A43C26288238A681A40882A21D1026B54
:100320000B681A4302631CE002680B689A43026080
:100330004A68202A04D142680B689A43426003E06D
:1003400042680B681A434260064BCA689A4204D15D
:1003500082680B681A43826003E082680B689A43E4
:1003600082607047FFFF000070477047704770471A
:1003700000BFFEE770477047704770477047000046
:10038000002905D0054A126B0243044B1A6304E0AE
:10039000024A126B8243014B1A637047000001400E
:1003A000C1029322520212881143084A91611146F8
:1003B0004968074A1143054A516000BF03498969EA
:1003C0000122D20311409142F8D170470000014050
:1003D00001005A5A70470000F0B58BB007460D4631
:1003E0001646002400200A900990254801460EC9AF
:1003F000C068079306920591089014222049103195
:100400006846FFF78DFE00BF08E0A00005A9085868
:10041000A84201D90A9403E0601CC4B2042CF4D3AE
:1004200000BF284670430990002409E0A0006946F7
:1004300009580998814201D9099403E0601CC4B2AB
:10044000052CF3D300BF0998400207210903084394
:10045000310108430A9989000843384309498862F1
:1004600008464068084908430649486000BF0548F7
:10047000806A0121C90308408842F8D10BB0F0BD61
:100480009C0800000000014004005A5A70B5044660
:100490000C48006880B20C494018C008C0002043D6
:1004A0000849086000F012F8054600F07BF805489E
:1004B00000684007400FA04201D0012070BD00201D
:1004C000FCE700000000014000005A5AF8B5002582
:1004D000002700240026002000902D4800684707D0
:1004E0007F0F2B4880694004040F2948806A8007E9
:1004F000800F00902648806AC005C60E3B0000F0C1
:10050000C3F805040C130E103400A000214A115842
:100510002148FFF7EFFD05462FE0204D2DE0204D4F
:100520002BE00125ED0328E00098002804D00128E5
:1005300003D003280ED104E000BF184835464543D8
:1005400011E0A000134A11581348FFF7D3FD704380
:10055000054608E0A0000F4A11580F48FFF7CAFDF2
:100560007043054600BF00BF07E0A000094A1158CC
:100570000948FFF7BFFD054600BF00BF04480068FB
:100580000006410F2846C84005462846F8BD000031
:10059000000001405C080000006CDC020024F40054
:1005A0002080000001490860704700000000002022
:1005B00070477047704710B5026840239A438B011B
:1005C000402423401A43026010BD024610690840CF
:1005D000002801D0012070470020FCE710B50A88F0
:1005E0008B881A434B891A430B8A1A43CB891A43C7
:1005F0008B891A434B881A43CB881A430B891A43B9
:100600000368024C23401A43026010BD4000FFFF04
:10061000816170477047000003480068034909780A
:100620004018014908607047040000200C000020B9
:10063000014802490860704700127A00000000205B
:1006400000B5FFF7F5FF9321490209884805400DE1
:1006500009498969C90AC9020143074A916193217D
:10066000490249888805800D1146096A890A89026C
:100670000143116200BD0000000001407047704757
:10068000704770477047704730B47446641E2578D1
:10069000641CAB4204D3635D5B00E31830BC1847B5
:1006A0001D46F8E702E008C8121F08C1002AFAD167
:1006B00070477047002001E001C1121F002AFBD1E2
:1006C0007047000010B592B0002401210220FFF70E
:1006D00057FE0120FFF7A8FD0720FFF761FE042267
:1006E00057490320FFF778FE0120FFF79DFD022008
:1006F000FFF7CCFE5348006B2021084351490863A3
:100700000846006B012108434E4908630846406BC8
:10071000891508434B4948634B4840690F21090438
:100720008843052109044018474948610846406943
:100730000F210905884305210905401842494861F0
:10074000084640690F21090688430521090640181B
:100750003D49486108464069000100090521090733
:10076000401839494861012040030E9020200F9025
:10077000364811900EA93448FFF776FD0120C003DA
:100780000E900EA93048FFF76FFD012080030E90F8
:1007900010200F900EA92C48FFF766FD0820059049
:1007A000002006901020079000200890012009905A
:1007B0001C200A90012080020B9025480C902548AF
:1007C0000D9005A92448FFF70FFD01212248FFF7EE
:1007D000FFFC002168460180042141800721890235
:1007E00081800021C18001810121490241811021C4
:1007F00081810021C1810182694616481838FFF7BE
:10080000EDFE012113481838FFF7D5FE10E000BFB8
:10081000012110481838FFF7D8FE0028F8D02046EC
:10082000621C94B20A4A115C0A481838FFF7F0FEBD
:10083000012080028442EAD3002012B010BD0000E3
:100840000024F4000000014000040048FFFF000005
:100850000D0000201830014020000240060000007A
:100860000600000006000000060000000600000070
:10087000060000000100000003000000020000006C
:100880000400000006000000080000000A0000004C
:100890000C0000000E00000010000000808D5B00C6
:1008A000001BB700002D310101366E0180A8120136
:1008B00000366E0100512502006CDC0201A24A04E0
:1008C000E0080000000000201004000068010000A3
:1008D000040900001004002000020000B40600001B
:1008E0001153127A32045B01C0015AFC01691009EC
:1008F0004601092658E928E91001FF01FF01FF011F
:040900005E00000095
:04000005000000C136
:00000001FF
